:020000040800F2
:10200000B00700209D210008A5210008B52E00087A
:1020100000000000000000000000000000000000C0
:10202000000000000000000000000000A9210008DE
:102030000000000000000000AB210008413900084A
:10204000AF21000800000000AF210008AF21000808
:10205000AF210008AF210008AF210008AF21000820
:1020600000000000AF210008AF210008AF210008E8
:10207000AF210008AF210008AF21000800000000D8
:10208000AF2100080000000000000000AF210008A0
:1020900000000000AF210008AF210008AF210008B8
:1020A000AF21000831360008AF2100089D3A000832
:1020B000AF21000800000000000000000000000048
:1020C00000F002F800F03EF80CA030C808382418E0
:1020D0002D18671EA246AB4654465D46AC4201D160
:1020E00000F030F87E460F3EB6460FCC0126334254
:1020F00000D0FB1A3343A246AB461847E421000048
:1021000004220000103A02D378C878C1FAD85207E6
:1021100001D330C830C101D504680C60704700009D
:102120000023002400250026103A01D378C1FBD8F3
:10213000520700D330C100D50B6070471FB51FBDDB
:1021400010B510BD00F0B3F81146FFF7F7FF01F02E
:10215000A1FD00F0CBF803B4FFF7F2FF03BC00F0E1
:10216000D1F8000070B505460C46164602E00FCCCB
:102170000FC5103E102EFAD2082E02D303CC03C591
:10218000083E042E07D301CC01C5361F03E0217899
:102190002970641C6D1C761EF9D270BD07488047FB
:1021A00007480047FEE7FEE7FEE7FEE7FEE7FEE73B
:1021B00004480549054A064B70470000253A0008C7
:1021C000C1200008B0010020B0070020B0030020AB
:1021D000B0030020F8B5042A2CD3830712D00B7863
:1021E000491C0370401C521E83070BD00B78491CFE
:1021F0000370401C521E830704D00B78491C0370E7
:10220000401C521E8B079B0F05D0C91ADF002023EC
:10221000DE1B08C90AE0FFF7A5FFF8BD1D4608C987
:10222000FD401C46B4402C4310C0121F042AF5D2B6
:10223000F308C91A521EF0D40B78491C0370401CD5
:10224000521EEAD40B78491C0370401C012AE4D4C6
:1022500009780170F8BDD2B210B513029A181304B0
:102260009A1800F00EF810BD01E004C0091F0429FF
:10227000FBD28B0701D50280801CC90700D00270F9
:10228000704700290BD0C30702D00270401C491EC2
:10229000022904D3830702D50280801C891EE3E74C
:1022A0000022EEE70022DFE770477047704775466F
:1022B00000F024F8AE46050069465346C008C00049
:1022C000854618B020B5FFF773FF60BCB646002600
:1022D0000027C0C5C0C5C0C5C0C5C0C5C0C5C0C534
:1022E000C0C5403D490849008D46704710B50446B9
:1022F000C046C0462046FFF72EFF10BD004870477D
:102300003000002001491820ABBEFEE72600020085
:102310007047000010B50120020530490B6C1343D3
:102320000B6402020B6813430B6064220B685B05AD
:1023300007D4531E12041A46F8D1CC2001F0FCFB3E
:1023400010BD38490A68D20703D00A680223134334
:102350000B6064220B68DB0707D0531E12041A4679
:10236000F8D1CB2001F0E8FB10BD4A6882434A60F7
:10237000C2070B6813430B6064220B68002B07D560
:10238000531E12041A46F8D1CA2001F0D5FB10BD25
:102390000A46083A1368DB0702D013680343136048
:1023A0000B6803430B6064231468E40707D15C1EC9
:1023B0001B042346F8D1C92001F0BEFB10BDCA683A
:1023C00070239A43CA60CA6877231343CB608005A1
:1023D00003490A6802430A6010BDC046001002406B
:1023E0000827014010B50F4A1062BA480123037054
:1023F000136804241C43146064231446083C2468B6
:10240000640707D45C1E1B062346F6D1C82001F0E2
:1024100093FB10BD926B0A70120A4A700021017082
:1024200010BDC0460824014080B50548012100F0D8
:102430002FFD80BD80B50248012100F02BFD80BD3D
:10244000000C005010B50446AB48102100F01AFDF6
:10245000012804D120784000401C207010BD0020CD
:10246000207010BDB0B50D460446052000070121BF
:10247000C90200F007FD002802D000202070B0BD86
:1024800020787F2808D16879002805D1287800288D
:1024900002D1284600F0B0FF20784000401C207098
:1024A000B0BD0000B0B50446D07A2038BF2811D89E
:1024B000507C00280ED0FF202070114801240470A9
:1024C000E1038D4800F0E6FC05200007214600F0FE
:1024D000E1FCB0BD0A4D2878012802D1084600F081
:1024E0008BFF0020207028700124E103824800F057
:1024F000CFFC05200007214600F0CAFCB0BDC04655
:1025000079010020F0B583B001920C4605460978A8
:102510006678300202914718012041031C4800F000
:10252000B1FC002801D0002002E028784000401CC7
:10253000287018498F420DD3C0B2FF280AD10198E4
:102540000078FF2806D07D20800013490880FF20F6
:1025500001990870114838184242424128780146D2
:10256000FF394B1E994111436437002900D13E0ABF
:1025700000220128134600D033466370002900D1A1
:102580000297012800D0029A227003B0F0BDC04625
:1025900000080050B90B0000220100200100FFFFDD
:1025A000F0B587B00F464B490978012900D188E082
:1025B0001D46164606900D980C990A7803924978A4
:1025C00002910178049144780120059080023946F7
:1025D000FFF708FF38787978090208183E4B198808
:1025E000884200D918803D4A1188884200D2108064
:1025F0003B4801884A1C02807D22D200914257D17B
:1026000021020E9A0192049A8918049100210091E6
:102610000180188833490988890008180527394638
:1026200001F042FD04462F4804802C4800882E49C2
:10263000098889000818394601F036FD2A4B1880B0
:10264000211A2A4A1180307058787070254908780C
:102650002870487868701088019A0499814202D2E3
:102660001178FF2910D011780029069A1A4B1B4CBB
:10267000009910D002990902039D491981420CD991
:102680001B480078810006E0194800788000C11CD2
:10269000069A114B114C1648017015480078FF2816
:1026A00001D0002800D1107012482080002018802E
:1026B00006980078FF2806D0059881030E4800F0A0
:1026C000E7FB07B0F0BD059881030B4800F0E2FB83
:1026D00007B0F0BD94000020960000200800002004
:1026E000900000200400002006000020920000203E
:1026F000A5010020FF0F000000040050B0B50C46FB
:102700000546052000070121890200F0BBFB0028D7
:1027100004D00F4800210160297013E00C480168C3
:102720004A00521C0260C80D2870FF20C0050840F6
:102730007F21C905884205D16079002802D120781F
:10274000002800D0B0BD204600F056FEB0BDC04607
:10275000A801002070B52B480168642917D1002119
:102760000160294C204639302146253122460A3263
:10277000FFF7C8FEA01C21460D31FFF7BFFFE01C8C
:1027800021461331FFF76EFE201DFFF75BFE7D2013
:10279000C1001E4802688A4233D10021016000F066
:1027A000D1FD194D2C46513429466D31204600F09B
:1027B0005BFD2846293000F01FFE012670022946E5
:1027C0002731FFF70FFE300229460B31FFF70AFED3
:1027D000700429463531FFF705FE28462F3029467B
:1027E0006E312246FFF75EFE204600F081FD29464D
:1027F0006C31303520462A4600F094FC204600F02B
:10280000E7FC70BD840100209C00002088010020AE
:1028100080B5002901D0FFF743FD80BD09480A4972
:1028200001600A490160012141607D2189008160C8
:10283000C168002903D000BFC1680029FBD1044949
:102840000160704700300040CCCC000055550000BE
:10285000AAAA0000F0B585B0DF480178012900D0B0
:1028600028E20021039101703B20C04304903C27E3
:10287000DA4CDB484B3002903D4608E0E019039902
:10288000049A81546D1C7F1C822F00D112E22846CD
:102890004B3805280CD8E0190499405C012807D171
:1028A00038464B3801218140CE4A107808431070D9
:1028B000CC4800783F2805D1029800F0B3FD03987A
:1028C000C84908702846513813280BD8E0190499D4
:1028D000405C012806D1FA48C15D38465138C0B283
:1028E00000F036FD652F08D12920205C012804D195
:1028F000F3480D300621FFF78BFF662F08D12A2001
:10290000205C012804D1EE4813300621FFF780FF38
:102910006B2F06D12F20205C012802D10398E849B3
:102920008872F8B201463C392E29A7D88A0001A343
:102930009B589F46132C0008132C0008372C0008C6
:10294000372C0008F1290008F1290008F3290008B4
:10295000F3290008F1290008F1290008F1290008ED
:10296000F1290008F1290008F12900085F2C00086E
:10297000F1290008F1290008F1290008F1290008CF
:10298000F1290008F1290008F1290008F1290008BF
:10299000F1290008F1290008F1290008F1290008AF
:1029A000F1290008F1290008F1290008F12900089F
:1029B000F1290008F1290008F1290008F12900088F
:1029C000F1290008F1290008F1290008F12900087F
:1029D000F1290008F1290008F1290008F12900086F
:1029E000EB2A0008EB2A0008EB2B0008EB2B000871
:1029F00044E7E319049E9B5D012B11D14223B04CA7
:102A0000E65C4323E35CAD4C1B029E19AA4B019686
:102A10009E4205D2039BAB4E3370AB4B019E1E8092
:102A20002E2900D92AE701A39B589F46132C0008A2
:102A3000132C0008372C0008372C0008E92A00085E
:102A4000E92A0008E92A0008E92A0008E92A00081A
:102A5000E92A0008E92A0008E92A0008E92A00080A
:102A6000E92A00085F2C0008E92A0008E92A000882
:102A7000E92A0008E92A0008E92A0008E92A0008EA
:102A8000E92A0008E92A0008E92A0008E92A0008DA
:102A9000E92A0008E92A0008E92A0008E92A0008CA
:102AA000E92A0008E92A0008E92A0008E92A0008BA
:102AB000E92A0008E92A0008E92A0008E92A0008AA
:102AC000E92A0008E92A0008E92A0008E92A00089A
:102AD000E92A0008E92A0008EB2A0008EB2A000886
:102AE000EB2B0008EB2B0008C8E6E319049E9B5D66
:102AF000012B0CD16723724CE65C6823E35C6F4CBE
:102B00001B029E19714B9E4201D8714B1E802E29CB
:102B100000D9B3E601A39A589746C046132C000883
:102B2000132C0008372C0008372C0008E92B00086C
:102B3000E92B0008E92B0008E92B0008E92B000825
:102B4000E92B0008E92B0008E92B0008E92B000815
:102B5000E92B00085F2C0008E92B0008E92B00088E
:102B6000E92B0008E92B0008E92B0008E92B0008F5
:102B7000E92B0008E92B0008E92B0008E92B0008E5
:102B8000E92B0008E92B0008E92B0008E92B0008D5
:102B9000E92B0008E92B0008E92B0008E92B0008C5
:102BA000E92B0008E92B0008E92B0008E92B0008B5
:102BB000E92B0008E92B0008E92B0008E92B0008A5
:102BC000E92B0008E92B0008E92B0008E92B000895
:102BD000EB2B0008EB2B000824010020250100202E
:102BE0009C0000207B01002048E6E219049BD25C97
:102BF000012A0CD16922324CA25C6A23E35C2F4C7F
:102C00001B029A182C4B9A4201D2324B1A8002298D
:102C10000DD2E119049A895C012908D13C21284B85
:102C2000595C3D229A5C120251182B4A11800146D0
:102C30003E39022910D2E0190499405C012808D1DC
:102C40003E201F4A105C3F21515C090208182349AD
:102C500008804A2F03D011E64A2800D00EE6A07B58
:102C6000012800D00AE64A201549085C5E2800D0F9
:102C700004E600F087F81A480022134600F05CF8DA
:102C800000F052F800F07EF8164800F02DF800F041
:102C90004BF82B2000F050FF2E2000F04DFF0720B6
:102CA00000028A490A680240894810180860BFF388
:102CB0004F8FFEE705B0F0BD983A000025010020D7
:102CC0009C0000202000002022010020871300002B
:102CD000200100201E01002072010020740100204C
:102CE000007000080060000870B5044600F066F847
:102CF0002F4D28680226304328602868F821884331
:102D00002860200A08402968014329600120000446
:102D100029680143296000BF00BF00F04FF8286810
:102D2000B043286070BDC0460120C00720490A6832
:102D300002430A607047C046F0B583B00193154660
:102D400006460020029000F039F8194F3868012437
:102D50002043386020C6029602980199016000F075
:102D60002DF8381F0168C90706D1FE2000F0E4FEE7
:102D7000BC480221017000E004603868A04338605C
:102D800003B0F0BD80B500F019F8094801680029CA
:102D900005D501460C39074A0A60074A0A60012135
:102DA000090602680A430260001FFB21016080BD22
:102DB0001420024023016745AB89EFCD0548016827
:102DC000C90305D50121090400BF02680A42FBD1ED
:102DD0007047C0461020024010B51F4801682F22DE
:102DE0000A43026005210A07112090611B48106008
:102DF0001B4890601B48D0600020506010625062F9
:102E0000194B08249C61194C1C60194C9C60194C8E
:102E1000DC600F2424025C601862332464025C626C
:102E2000154B98611A6098604907D960586018621C
:102E3000586212490E228A6155220A608860C86071
:102E40004860086248620E49886108608860C8600E
:102E500048600862486210BD3410024029200569AC
:102E60003C33003C2A011982000400507FA4A0508A
:102E70000050FF000008008000080050000C0050C7
:102E80000014005000690840411A48424841704708
:102E9000816270478161704780B5054800780028DD
:102EA00002D0FFF7C1FA80BDFFF7C4FA80BDC0466B
:102EB000200000200720000204490A68024004485C
:102EC00010180860BFF34F8F7047C0460CED00E04C
:102ED0000400FA0510B5104801680124A1430160FF
:102EE00001682E2291430160182000F0EDFDA0053D
:102EF00008490A6882430A6010BDC0460120810566
:102F0000044A13680B4313600349044A0A610860CA
:102F10007047C0463C100240005800402B1D200066
:102F200070B581B06B4600241C701B78092B07D844
:102F300000BF009B5B1C6D462B702B780A2BF7D3D0
:102F4000464B59624449084001210D04401918605C
:102F500048031D6805431D60414804605D69ED0735
:102F600007D15D69ED0616D4056895421CD800BFEF
:102F7000F4E70925AD021E682E431E600460890334
:102F80005C69640704D40468944216D800BFF7E76C
:102F9000186A196018E0D54804220270880319687D
:102FA00001431960FE200FE0D0480322027088031D
:102FB000196801431960FE2006E0CC480322027024
:102FC000186808431860FE20C0B201B070BDC0464A
:102FD00070B582B001AC627021706A460021117038
:102FE0001278092A07D800BF009A521C6C4622703A
:102FF00022780A2AF7D3184A1040012254040419EF
:10300000164804605403056825430560144C0D46BA
:1030100002E06D1C022D1AD001AE765D4662216081
:103020004669F607F5D14669F60604D426689E423D
:1030300004D800BFF4E7DA49042301E0D8490323A8
:103040000B70910302680A43026002B070BD9103E5
:10305000016002B070BDC046FF030000045800408C
:103060006C0100206B0100206C2027492B220A54A0
:103070006D2037220A545548002101707047C04620
:103080006A20214900220A54692045230B546820F4
:103090000A54672060220A540248038002480280D2
:1030A0007047C0461E0100202001002080B509485D
:1030B00001683122144B99540168090A322299544B
:1030C000418833229954C17834229954006800F021
:1030D0003FFD80BD0068000849200B4900220A54CA
:1030E0004820A4220A544720CB220A54462080229A
:1030F0000A54064806490160064807490160074826
:10310000074901607047C0469C0000200C00002069
:10311000C0D401001C000020A0BB0D002400002032
:1031200080CBA400F0B581B0844B1E78264C0027DC
:10313000002E009201D03B4602E023785B005B1C2E
:103140002246057C7F242C40282C00D33B460D785A
:1031500013701E4A002E03D03946AC4205D205E05A
:1031600011784900491CAC4200D33946002C00D1EB
:1031700021461170DBB2FF3B594259417342734102
:10318000847B602525403543447A01D00B4005D02F
:1031900009206421154600F0DBF82A46A00609D56F
:1031A00066480078012805D109204421144600F022
:1031B000CFF822461078FF2801D001B0F0BD0120E1
:1031C0000099087001B0F0BD990000209A0000201D
:1031D00010B501797F221140007C1040382808D8B2
:1031E000082927D0144C2088002823D1D420082275
:1031F00009E03A280FD810291CD00F4C208800284D
:1032000018D1D420102204210B46FFF7E1FE7D20C7
:103210004001208010BD20290CD0074C20880028B8
:1032200008D1D420202204210B46FFF7D1FE7D20B7
:103230004001208010BDC0460A000020B0B5D42453
:103240000221FD22042520462B46FFF7C1FE202245
:10325000204629462B46FFF7BBFE0121E6222046E9
:103260002B46FFF7B5FEB0BD70B588B00C460546DD
:103270000026F1B2D4200422FFF752FE02A988559D
:10328000761C152EF5D1464E3078C01E022819D274
:10329000E22000F051FCFFF71DFE01A8002404709D
:1032A0000078092807D800BF0198401C01A90870C0
:1032B00008780A28F7D3FFF721FEFFF7BFFF347025
:1032C00008B070BD02A915222846FEF783FFA87B2F
:1032D0007F2101402078814202D9CF48012101E0BD
:1032E000CD480021017008B070BDC0466B010020C0
:1032F000B0B57F21037B07221A40114C2588037843
:103300005BB2002D0DD1002B0BD4007C0840372878
:1033100007D3022A05D1BD480078012801D1FF2139
:1033200005E0002D09D1002B07D5022A05D0002089
:1033300000F00EF87D2040012080B0BD7901002012
:103340001000002080B503207A2100F001F880BD34
:10335000B0B582B00A460146D4200423FFF738FEF8
:103360000F4C2078C01E012817D8E12000F0E4FBA4
:10337000FFF7B0FD01A8002505700078092807D8DF
:1033800000BF0198401C01A9087008780A28F7D3EB
:10339000FFF7B4FDFFF752FF257002B0B0BDC04685
:1033A0006B01002080B501210A071148036813430F
:1033B00003608A02036813430360426A0A4342625D
:1033C0007D229200436A9B0707D4531E12041A46BB
:1033D000F8D1CF2000F0B0FB80BD0902054A136888
:1033E0000B43136041214902026A0A43026280BD15
:1033F0003C1002400070004009494A68120C4271BA
:103400004A68120A02714A68C2700A68120C827015
:103410000A68120A427009687F220A4002707047E7
:1034200000280040F0B583B0817802914478057897
:103430004379C67807791A48CA218161532181618D
:1034400001688022019211430160390289191A042E
:103450008A187F2129406406640C6118029B9B0630
:103460009B0ACC186423DD430168490606D46D1C11
:10347000FAD3CE2000F060FB03B0F0BD09494160F3
:1034800001460C390C60014608390A600168019A4E
:1034900091430160FE218161836103B0F0BDC046AC
:1034A0000C280040F9007F00014802490160704784
:1034B00000300040AAAA0000F0B581B00446514E89
:1034C0003078002826D0012863D14F4801210170AF
:1034D0000520050720212846FFF7D4FC524F01287C
:1034E00005D13878002802D149484E490160202191
:1034F0002846FFF7C7FC3870454D286800285CD087
:10350000E7480068002858D042480078FF2854D087
:1035100001B0F0BD0D463C48002101703C4C2068D4
:10352000002803D13948007801280BD03B480068B7
:103530000028EDD1384800780128E9D135480078D5
:103540000028E5D1EF2000F0F7FAEE2000F0F4FAC1
:1035500033480821FFF79EFC2846FFF74DFFD0486F
:10356000D04901602F482060012030704920EA498D
:10357000085C000648228A5C1204101847228A5C04
:10358000120280184622895C40182449086001B064
:10359000F0BDDF2000F0D0FADE2000F0CDFA2048A8
:1035A0000821FFF775FC2046FFF726FF002030704A
:1035B00017481E49016001B0F0BD4920F249085C7E
:1035C000000648228A5C1204101847228A5C120204
:1035D00080184622895C401810490860104808216C
:1035E000FFF756FCFF2000F0A7FAFE2000F0A4FA37
:1035F0002046FFF701FF002030700C48286001B022
:10360000F0BDC046280000201200002079010020F3
:103610000C0000209A0000209B00002024000020C5
:1036200000040050C0D401007A010020204E0000A8
:1036300080B500F01DF880BDB0B5AD4801684022EE
:1036400091430160084C2069084D284020611920F1
:1036500000F03AFA0120000321680143216020684C
:1036600028402060B0BDC04630100240FFEFFFFF91
:10367000F0B581B08048011F0968C90701D101B0C8
:10368000F0BD02687D4E3378052B25D8D1B2C046F7
:103690007B441B795B009F44022536466EAB7B4B17
:1036A00000221A707A4B1A70814B1A707E4B1A7076
:1036B0007E4B1A70744B1A70714B19707D4B1A70D7
:1036C000AB2900D0C9E001213170DE2101701878EA
:1036D0004840187001B0F0BD6A490A78521C0A705F
:1036E000FE21B5E0664A13784B401370CD2900D017
:1036F000A9E0FA210170022030706E4802784A4039
:10370000027001B0F0BD624B19705D4C25784D40E0
:103710002570FE242240812A00D998E00170032000
:103720003070187821E07F220A40614B1A70564BA6
:103730001A70CB09554C2370514B1C784C401C70AF
:10374000511E152900D382E051490A785308402BB5
:103750007DD8564B1C78A2188B4CA25C02700420BA
:103760003070087819780818205C52490A7842406D
:103770000A7001B0F0BD4C4A1170414A13784B40B9
:103780001370434A1478494B1D782C193F4F3F78EA
:10379000012F05D127463C3F452F01D83E4F795593
:1037A000832C07D337490C78641C0C70EE21017010
:1037B000002131703E490C78651E0D701C78641C28
:1037C0001C702D060FD01578E4B22C19812C0AD864
:1037D0006D4D2C5D047012781B789A18AA5C354BDD
:1037E0001C7854401C70097800293FD0042031E037
:1037F000234A12788A4226D124480078012819D118
:1038000021480178002915D005780124012D00D820
:1038100025461F4807781F4838183C382946224655
:10382000FEF719FD5848C0191B492A46FEF7D2FC7D
:103830001A4804701348002101701948194A02609F
:10384000317001B0F0BD0F490A78521C0A70EE21A8
:1038500001700020307001B0F0BD0A490B785B1C8C
:103860000B70EE210170327001B0F0BD1149097882
:1038700001700520EEE7C0460C3001407E010020BB
:1038800070010020760100208C01002080010020C2
:103890007C0100202501002090010020240100204F
:1038A0001C000020A0BB0D007F010020980000201C
:1038B0007D01002078010020B0B5012420036C496F
:1038C0000A6802430A6019252846214600F014F9C7
:1038D000284600F007F95D20800105494860086826
:1038E00020430860092080010A6802430A60B0BDD5
:1038F000003001407720244901220A547620F42325
:103900000B5475200A5474200B5470471E48002134
:1039100041702321017070479C000020B0B5064C17
:10392000064860600025E843032100F0E5F8A56043
:1039300007202060B0BDC04610E000E03F1F00003F
:1039400080B584B000F016F900F0ACFA00F096FBF8
:1039500000F050FA00F086FA00F0AEFA00F07CFBBE
:10396000094A10462F3011467431134676330093BE
:1039700001910290501D11463731931D0832FEF718
:103980000FFE04B080BDC0469C000020B0B5204DA5
:103990002C1F20688006400F411E032922D81D4895
:1039A0007944097949008F442801171A29680322AC
:1039B0000A40032A00D0184829684906490F491CC3
:1039C00000F072FB29684904490E48432968490FF1
:1039D000491C00F069FB10E07D2000020DE0012091
:1039E000C0030AE00120C0020C3D296801432960A0
:1039F00028688004410F0848C840084908602268C8
:103A000092093C231340064AD258D0400860B0BD0A
:103A10000C10024000127A000024F4000000002084
:103A2000A042000880B5FFF7B1FF024802490160DB
:103A300080BDC04608ED00E000200008B0B50125BB
:103A4000A8030B490A6802430A601B240021204690
:103A500000F052F8204600F045F806484521C160C4
:103A600001682C220A430260016829430160B0BD4D
:103A7000401002400038014010B500290CD000224F
:103A8000324B02E0521C8A4206D0845CDC601C6827
:103A90002406F7D400BFFAE7002010BD80B52B48FC
:103AA0000168890603D41B2000F00EF880BD8068F1
:103AB000C0B2532803D1CE480121017080BDCC484B
:103AC0000021017080BDC0461F21014001208840B7
:103AD00003490860BFF34F8FBFF36F8F7047C04635
:103AE00080E100E01F210140012088400149086079
:103AF0007047C04600E100E0B0B500280ED40322B4
:103B0000830790430B4A8458DB0EFF259D40AC434E
:103B10008901C9B2994021438150B0BDFF20000600
:103B2000034A13688343880718181060B0BDC04665
:103B300020ED00E000E400E00449C86008680006E9
:103B400003D400BF08680006FBD570471C3801404D
:103B500010B50446000EFFF7EFFF200CC0B2FFF7D0
:103B6000EBFF200AC0B2FFF7E7FFE0B2FFF7E4FF88
:103B700010BD0000F0B581B0434F3888002801D057
:103B8000401E01E07D2080003880934D934E3188A7
:103B90003E4C002917D02988002914D0000407D1F1
:103BA00008212046FFF774F904212046FFF772F937
:103BB0003888FA2807D108212046FFF76BF904213D
:103BC0002046FFF765F93088002818D0288800289B
:103BD00015D13888002807D108212046FFF758F969
:103BE00004212046FFF756F93888FA2807D1082122
:103BF0002046FFF74FF904212046FFF74BF93088A4
:103C0000002818D12888002815D03888002807D126
:103C100008212046FFF73EF904212046FFF738F936
:103C20003888FA2807D108212046FFF733F9042104
:103C30002046FFF72FF930882988014307D1082152
:103C40002046FFF727F904212046FFF723F93288A1
:103C5000002A01D1134600E0531E0020C0430C4946
:103C60008A42024600D01A4632802A88002A03D1AE
:103C700013468A4204D002E0531E8A4200D01846FE
:103C8000288001B0F0BDC04614000020000C005098
:103C9000FFFF000082B062B6FFF79EF8FFF71AF947
:103CA000FFF71AFAFFF73AFEFFF7C8FEFFF726F90B
:103CB000FFF702FEFFF776FBFEF72CFBFEF7AEFDEB
:103CC000FEF7B2FBFFF7BAFAFFF720FEFFF712FE8E
:103CD000FFF7D6F9FFF7EAF9FFF7C6F97D200001F3
:103CE0003D4908803D490880AC20FFF725FFD64CB0
:103CF0002068FFF72DFF2068401C12D0BB20FFF783
:103D00001BFFDD20FFF718FF35480821FFF7C0F83B
:103D1000344800210170614801705F48CB4901605F
:103D20001DE0CC20FFF708FFEE20FFF705FF2D4830
:103D3000012101705948017029480821FFF7AAF8AC
:103D40005548294901602068002808D0FFF71AF873
:103D5000002220461346FEF7EFFFFEF7E5FF20683E
:103D6000FFF7F6FE214D3D4C214E00E030BF287894
:103D7000022819D3FFF760FC002701970198C72894
:103D800006DC00BF0198401C01900198C828F8DBB0
:103D9000FFF792FD2F70E120FFF7CEFEE220FFF744
:103DA000CBFEE320FFF7C8FEFEF754FDFEF7D2FC82
:103DB000FFF772F820461F3021461931FFF77CFBD0
:103DC000FFF772FB30780128D0D182212046FFF71F
:103DD00053FE00203070C9E77401002072010020FA
:103DE0000004005028000020C0D40100760100200B
:103DF000AC01002010B516480188002919D0491ED1
:103E00000180144801884A1E028000290AD1124903
:103E100001220A706921114A515C114A1180002166
:103E2000C94301800E490A88531E0B80002A04D022
:103E300010BD09480121017010BD074A002313700D
:103E40006722064CA25C0280D843088010BDC046A1
:103E50002201002020010020200000209C000020E2
:103E60001E0100200B480168002900D0491E016096
:103E700009480168002900D0491E0160084801680E
:103E8000002905D0054A1278002A01D1491E016097
:103E90007047C0461C0000200C00002012000020CB
:103EA0002400002003480168491C02D00168491C15
:103EB000016070476C01002010B582B05E4C207824
:103EC000092818D87844007940008744040C162348
:103ED0002B373F4B566059484021FEF7D3FF00284F
:103EE00009D1012050E055484021FEF7CBFF0128C1
:103EF00001D102208BE002B010BD50484021FEF7F6
:103F0000C1FF01283FD14E480168002900D089E057
:103F100003218AE049484021FEF7B4FF002827D159
:103F2000042074E045484021FEF7ACFF00282AD168
:103F300043480168002975D1052176E03F484021BA
:103F4000FEF7A0FF012813D1062060E03B48402186
:103F5000FEF798FF012816D139480168002961D180
:103F6000072162E035484021FEF78CFF00284DD044
:103F700033480168002955D105E030484021FEF75B
:103F800081FF00284AD00020207002B010BD2B48CD
:103F90004021FEF777FF012823D1F120FFF7CCFD68
:103FA000F220FFF7C9FDF320FFF7C6FDFEF7EAFE9A
:103FB0002448002422462346FEF7BEFEFEF7B4FE48
:103FC000FEF7E0FE2048FEF78FFEFEF7ADFE0194FF
:103FD0001E48019981420DDA00BF0199491C0191E7
:103FE000F7E71748016800291CD1002121707D21C5
:103FF00009011DE0164801687D221201D03A0A40ED
:10400000144951180160BFF34F8FFEE7082020705C
:104010007D2000010A49086002B010BD084801680F
:10402000002901D0491E03E0092121707D214901A9
:10403000016002B010BDC0467701002000080050AA
:10404000180000200070000800600008204E0000EA
:104050000CED00E00400FA0506480188002900D0B4
:10406000491E018004480188002900D0491E0180B2
:104070007047C046100000200A0000207D20C100CB
:10408000074802688A4202D00168491C016005485D
:104090000168642902D00168491C01607047C0466C
:1040A000880100208401002043088B421AD300229B
:1040B00003098B4279D3030A8B425ED3030B8B42F5
:1040C00042D3030C8B4227D30902FF2212BA030CFE
:1040D0008B4202D31212090203D0030B8B4233D35B
:1040E0001AE0D3E0411A8041401C704703460B435D
:1040F00071D443088B42F5D3002203098B4254D379
:10410000030A8B4239D3030B8B421DD3030C8B4222
:1041100002D394466EE0090AC30B8B4201D3CB0352
:10412000C01A5241830B8B4201D38B03C01A5241F8
:10413000430B8B4201D34B03C01A5241030B8B42FA
:1041400001D30B03C01A5241C30A8B4201D3CB02E5
:10415000C01A5241830A8B4201D38B02C01A5241CA
:10416000430A8B4201D34B02C01A5241030A8B42CD
:1041700001D30B02C01A5241CDD2C3098B4201D3E5
:10418000CB01C01A524183098B4201D38B01C01A63
:10419000524143098B4201D34B01C01A52410309DA
:1041A0008B4201D30B01C01A5241C3088B4201D389
:1041B000CB00C01A524183088B4201D38B00C01A36
:1041C000524143088B4201D34B00C01A5241411A5D
:1041D000524110007047CA0F00D04942031000D36B
:1041E0004042534000229C4603098B422DD3030AD0
:1041F0008B4212D38901FC2212BA030A8B420CD3E0
:10420000890192118B4208D3890192118B4204D308
:10421000890137D0921100E08909C3098B4201D38B
:10422000CB01C01A524183098B4201D38B01C01AC2
:10423000524143098B4201D34B01C01A5241030939
:104240008B4201D30B01C01A5241C3088B4201D3E8
:10425000CB00C01A524183088B4201D38B00C01A95
:104260005241D9D243088B4201D34B00C01A52416C
:10427000411A00D201465241104663465B1000D3FA
:104280004042704763465B1000D3404201B50021B5
:10429000004201D0C9430846C046C04602BD0000E6
:1042A000000000000000000000000000000000000E
:1042B00000000000000000000000000000000000FE
:1042C00001000000020000000300000004000000E4
:1042D00006000000070000000800000009000000C0
:1042E0000043000800000020300000000421000806
:1042F0003043000830000020800700002021000823
:104300000024F40040074007FF0FA00FC0D40100B5
:10431000A00F0100F4010000D0070000A0BB0D00B9
:104320000100000080CBA40001000000000000009C
:04000005080020C10E
:00000001FF
